{
	"data": {
		"bytecode": {
			"linkReferences": {},
			"object": "608060405234801561001057600080fd5b506040516100e23803806100e28339818101604052602081101561003357600080fd5b8101908080519060200190929190505050806000819055505060888061005a6000396000f3fe6080604052348015600f57600080fd5b506004361060285760003560e01c8063c5b748c014602d575b600080fd5b60336049565b6040518082815260200191505060405180910390f35b6000805490509056fea2646970667358221220df8cebde3a33f9de9481d3508eaaa932066543b0f7cbfe05d3c0188ed1e11bc664736f6c63430006070033",
			"opcodes": "PUSH1 0x80 PUSH1 0x40 MSTORE CALLVALUE DUP1 ISZERO PUSH2 0x10 JUMPI PUSH1 0x0 DUP1 REVERT JUMPDEST POP PUSH1 0x40 MLOAD PUSH2 0xE2 CODESIZE SUB DUP1 PUSH2 0xE2 DUP4 CODECOPY DUP2 DUP2 ADD PUSH1 0x40 MSTORE PUSH1 0x20 DUP2 LT ISZERO PUSH2 0x33 JUMPI PUSH1 0x0 DUP1 REVERT JUMPDEST DUP2 ADD SWAP1 DUP1 DUP1 MLOAD SWAP1 PUSH1 0x20 ADD SWAP1 SWAP3 SWAP2 SWAP1 POP POP POP DUP1 PUSH1 0x0 DUP2 SWAP1 SSTORE POP POP PUSH1 0x88 DUP1 PUSH2 0x5A PUSH1 0x0 CODECOPY PUSH1 0x0 RETURN INVALID PUSH1 0x80 PUSH1 0x40 MSTORE CALLVALUE DUP1 ISZERO PUSH1 0xF JUMPI PUSH1 0x0 DUP1 REVERT JUMPDEST POP PUSH1 0x4 CALLDATASIZE LT PUSH1 0x28 JUMPI PUSH1 0x0 CALLDATALOAD PUSH1 0xE0 SHR DUP1 PUSH4 0xC5B748C0 EQ PUSH1 0x2D JUMPI JUMPDEST PUSH1 0x0 DUP1 REVERT JUMPDEST PUSH1 0x33 PUSH1 0x49 JUMP JUMPDEST PUSH1 0x40 MLOAD DUP1 DUP3 DUP2 MSTORE PUSH1 0x20 ADD SWAP2 POP POP PUSH1 0x40 MLOAD DUP1 SWAP2 SUB SWAP1 RETURN JUMPDEST PUSH1 0x0 DUP1 SLOAD SWAP1 POP SWAP1 JUMP INVALID LOG2 PUSH5 0x6970667358 0x22 SLT KECCAK256 0xDF DUP13 0xEB 0xDE GASPRICE CALLER 0xF9 0xDE SWAP5 DUP2 0xD3 POP DUP15 0xAA 0xA9 ORIGIN MOD PUSH6 0x43B0F7CBFE05 0xD3 0xC0 XOR DUP15 0xD1 0xE1 SHL 0xC6 PUSH5 0x736F6C6343 STOP MOD SMOD STOP CALLER "
		},
		"gasEstimates": {
			"creation": {
				"codeDepositCost": "27200",
				"executionCost": "infinite",
				"totalCost": "infinite"
			},
			"external": {
				"redemptionPrice()": "991"
			}
		},
		"methodIdentifiers": {
			"redemptionPrice()": "c5b748c0"
		}
	},
	"abi": [
		{
			"inputs": [
				{
					"internalType": "uint256",
					"name": "tmpPrice",
					"type": "uint256"
				}
			],
			"stateMutability": "nonpayable",
			"type": "constructor"
		},
		{
			"inputs": [],
			"name": "redemptionPrice",
			"outputs": [
				{
					"internalType": "uint256",
					"name": "",
					"type": "uint256"
				}
			],
			"stateMutability": "view",
			"type": "function"
		}
	]
}