{
	"data": {
		"bytecode": {
			"linkReferences": {},
			"object": "60806040526b033b2e3c9fd0803ce800000060005534801561002057600080fd5b5060405161019e38038061019e8339818101604052602081101561004357600080fd5b810190808051906020019092919050505080600181905550506101338061006b6000396000f3fe6080604052348015600f57600080fd5b506004361060465760003560e01c8063112e646514604b5780634b9596cf146076578063552033c4146092578063c5b748c01460ae575b600080fd5b607460048036036020811015605f57600080fd5b810190808035906020019092919050505060ca565b005b607c60d4565b6040518082815260200191505060405180910390f35b609860da565b6040518082815260200191505060405180910390f35b60b460ea565b6040518082815260200191505060405180910390f35b8060008190555050565b60005481565b6b033b2e3c9fd0803ce800000081565b600060f560015460ca565b60005490509056fea264697066735822122010084a400ae9d5c9ee39d9b66f8c70a86f6436a9a55da303927e319bf29e3d3764736f6c63430006070033",
			"opcodes": "PUSH1 0x80 PUSH1 0x40 MSTORE PUSH12 0x33B2E3C9FD0803CE8000000 PUSH1 0x0 SSTORE CALLVALUE DUP1 ISZERO PUSH2 0x20 JUMPI PUSH1 0x0 DUP1 REVERT JUMPDEST POP PUSH1 0x40 MLOAD PUSH2 0x19E CODESIZE SUB DUP1 PUSH2 0x19E DUP4 CODECOPY DUP2 DUP2 ADD PUSH1 0x40 MSTORE PUSH1 0x20 DUP2 LT ISZERO PUSH2 0x43 JUMPI PUSH1 0x0 DUP1 REVERT JUMPDEST DUP2 ADD SWAP1 DUP1 DUP1 MLOAD SWAP1 PUSH1 0x20 ADD SWAP1 SWAP3 SWAP2 SWAP1 POP POP POP DUP1 PUSH1 0x1 DUP2 SWAP1 SSTORE POP POP PUSH2 0x133 DUP1 PUSH2 0x6B PUSH1 0x0 CODECOPY PUSH1 0x0 RETURN INVALID PUSH1 0x80 PUSH1 0x40 MSTORE CALLVALUE DUP1 ISZERO PUSH1 0xF JUMPI PUSH1 0x0 DUP1 REVERT JUMPDEST POP PUSH1 0x4 CALLDATASIZE LT PUSH1 0x46 JUMPI PUSH1 0x0 CALLDATALOAD PUSH1 0xE0 SHR DUP1 PUSH4 0x112E6465 EQ PUSH1 0x4B JUMPI DUP1 PUSH4 0x4B9596CF EQ PUSH1 0x76 JUMPI DUP1 PUSH4 0x552033C4 EQ PUSH1 0x92 JUMPI DUP1 PUSH4 0xC5B748C0 EQ PUSH1 0xAE JUMPI JUMPDEST PUSH1 0x0 DUP1 REVERT JUMPDEST PUSH1 0x74 PUSH1 0x4 DUP1 CALLDATASIZE SUB PUSH1 0x20 DUP2 LT ISZERO PUSH1 0x5F JUMPI PUSH1 0x0 DUP1 REVERT JUMPDEST DUP2 ADD SWAP1 DUP1 DUP1 CALLDATALOAD SWAP1 PUSH1 0x20 ADD SWAP1 SWAP3 SWAP2 SWAP1 POP POP POP PUSH1 0xCA JUMP JUMPDEST STOP JUMPDEST PUSH1 0x7C PUSH1 0xD4 JUMP JUMPDEST PUSH1 0x40 MLOAD DUP1 DUP3 DUP2 MSTORE PUSH1 0x20 ADD SWAP2 POP POP PUSH1 0x40 MLOAD DUP1 SWAP2 SUB SWAP1 RETURN JUMPDEST PUSH1 0x98 PUSH1 0xDA JUMP JUMPDEST PUSH1 0x40 MLOAD DUP1 DUP3 DUP2 MSTORE PUSH1 0x20 ADD SWAP2 POP POP PUSH1 0x40 MLOAD DUP1 SWAP2 SUB SWAP1 RETURN JUMPDEST PUSH1 0xB4 PUSH1 0xEA JUMP JUMPDEST PUSH1 0x40 MLOAD DUP1 DUP3 DUP2 MSTORE PUSH1 0x20 ADD SWAP2 POP POP PUSH1 0x40 MLOAD DUP1 SWAP2 SUB SWAP1 RETURN JUMPDEST DUP1 PUSH1 0x0 DUP2 SWAP1 SSTORE POP POP JUMP JUMPDEST PUSH1 0x0 SLOAD DUP2 JUMP JUMPDEST PUSH12 0x33B2E3C9FD0803CE8000000 DUP2 JUMP JUMPDEST PUSH1 0x0 PUSH1 0xF5 PUSH1 0x1 SLOAD PUSH1 0xCA JUMP JUMPDEST PUSH1 0x0 SLOAD SWAP1 POP SWAP1 JUMP INVALID LOG2 PUSH5 0x6970667358 0x22 SLT KECCAK256 LT ADDMOD 0x4A BLOCKHASH EXP 0xE9 0xD5 0xC9 0xEE CODECOPY 0xD9 0xB6 PUSH16 0x8C70A86F6436A9A55DA303927E319BF2 SWAP15 RETURNDATASIZE CALLDATACOPY PUSH5 0x736F6C6343 STOP MOD SMOD STOP CALLER "
		},
		"gasEstimates": {
			"creation": {
				"codeDepositCost": "61400",
				"executionCost": "infinite",
				"totalCost": "infinite"
			},
			"external": {
				"RAY()": "227",
				"_redemptionPrice()": "1005",
				"redemptionPrice()": "21900",
				"updateRedemptionPrice(uint256)": "20220"
			}
		},
		"methodIdentifiers": {
			"RAY()": "552033c4",
			"_redemptionPrice()": "4b9596cf",
			"redemptionPrice()": "c5b748c0",
			"updateRedemptionPrice(uint256)": "112e6465"
		}
	},
	"abi": [
		{
			"inputs": [
				{
					"internalType": "uint256",
					"name": "_val",
					"type": "uint256"
				}
			],
			"stateMutability": "nonpayable",
			"type": "constructor"
		},
		{
			"inputs": [],
			"name": "RAY",
			"outputs": [
				{
					"internalType": "uint256",
					"name": "",
					"type": "uint256"
				}
			],
			"stateMutability": "view",
			"type": "function"
		},
		{
			"inputs": [],
			"name": "_redemptionPrice",
			"outputs": [
				{
					"internalType": "uint256",
					"name": "",
					"type": "uint256"
				}
			],
			"stateMutability": "view",
			"type": "function"
		},
		{
			"inputs": [],
			"name": "redemptionPrice",
			"outputs": [
				{
					"internalType": "uint256",
					"name": "",
					"type": "uint256"
				}
			],
			"stateMutability": "nonpayable",
			"type": "function"
		},
		{
			"inputs": [
				{
					"internalType": "uint256",
					"name": "val_",
					"type": "uint256"
				}
			],
			"name": "updateRedemptionPrice",
			"outputs": [],
			"stateMutability": "nonpayable",
			"type": "function"
		}
	]
}